:020000040800F2
:100000000020001089430008F14200087315000821
:10001000F3420008F5420008F74200080000000023
:10002000000000000000000000000000F94200088D
:10003000FB42000800000000FD140008FD4200081B
:10004000094400080D440008114400081544000844
:10005000194400081D440008FF090008230A00088D
:10006000470A00086B0A00088F0A000821440008AC
:1000700025440008294400082D44000831440008A4
:1000800035440008394400083D4400084144000854
:1000900045440008494400084D440008B30A0008DC
:1000A0005144000855440008594400085D440008C4
:1000B0006144000865440008694400086D44000874
:1000C0007144000875440008794400087D44000824
:1000D0008144000885440008894400088D440008D4
:1000E0003B0B00089144000895440008994400081F
:1000F0009D440008A1440008A5440008A944000844
:10010000AD440008B1440008B5440008B9440008F3
:10011000BD440008C1440008C5440008C9440008A3
:10012000CD440008D1440008D5440008D944000853
:10013000DD440008E1440008E5440008E944000803
:10014000ED440008F1440008F5440008F9440008B3
:10015000FD44000801450008054500080945000860
:100160000D4500081145000815450008194500080F
:100170001D45000821450008254500080000000035
:10018000294500082D45000880B55FF0FF31DFF8F4
:10019000300600F083FB0028FDD101BD80B5DFF8FB
:1001A000200600F0B6FB0028FDD101BD00B597B0D8
:1001B00001214FF4037000F014FD00214FF403708F
:1001C00000F059FD01214FF4037000F03EFD0121C4
:1001D00040F20D2000F005FD05220B2140F20D201C
:1001E00000F0E6FD012140F20F2000F0FAFC0522AC
:1001F0000B2140F20F2000F0DBFD012140F20E2028
:1002000000F0EFFC05220B2140F20E2000F0D0FDA3
:1002100000200090DFF8AC05006850F48040DFF863
:10022000A4150860DFF89C05006810F48040009079
:100230000098DFF8940501904FF48270029000203E
:1002400003900020049000200590002006904FF4B9
:1002500000700790002008900020099000200A906C
:1002600000200B9003200C9001A800F00BFE00284A
:1002700000D0FEE7DFF85005006850F04000DFF8DE
:100280004815086017B000BD80B5DFF83C05006870
:100290007FF040010840DFF830150860DFF82405E2
:1002A000006830F48040DFF81C150860DFF81C059A
:1002B000006850F48040DFF814150860DFF80C0582
:1002C000006830F48040DFF80415086001214FF425
:1002D000037000F0BAFC00214FF4037000F081FCC1
:1002E000092140F20D2000F0C6FC002140F20D2053
:1002F00000F077FC092140F20F2000F0BCFC002147
:1003000040F20F2000F06DFC092140F20E2000F0B9
:10031000B2FC002140F20E2000F063FC01BDDFF8CA
:10032000B01409688907FAD5DFF8A8140870DFF857
:10033000A0040068C007FAD5DFF898040068C0B2CE
:10034000704710B5040000214FF4037000F07DFCED
:100350002000C0B2FFF7E3FF0020FFF7E0FF04003A
:1003600001214FF4037000F070FC2000C0B210BDFA
:1003700010B500240520FFF7E4FFC00701D40120D9
:100380000AE0002000E0401CC0B21428FBDB641C23
:10039000B4F5803FEED3002010BD80B5FFF7E8FF35
:1003A000002801D1032010E000214FF4037000F079
:1003B0004CFCB920FFF7B3FF01214FF4037000F0AC
:1003C00044FC022000F08CFE002002BD80B500211C
:1003D0004FF4037000F039FCAB20FFF7A0FF0121C0
:1003E0004FF4037000F031FC022000F079FE01BDF3
:1003F00070B504000D001600FFF7BAFF002801D108
:10040000032023E000214FF4037000F01EFC0320C2
:10041000FFF785FF200CC0B2FFF781FF200AC0B2B2
:10042000FFF77DFF2000C0B2FFF779FF05E0761EE1
:100430000020FFF774FF28706D1CB6B2002EF6D1B5
:1004400001214FF4037000F000FC002070BD80B566
:1004500000214FF4037000F0F8FB0620FFF75FFF68
:1004600001214FF4037000F0F0FB01BD2DE9F843CA
:1004700004000D00160000271BE01FFA88F818FA88
:1004800087F0285CFFF74BFF18F10108404649460A
:1004900080B289B28842F0D301214FF4037000F09A
:1004A000D4FB19EB070714FA89F4B4F1807F00D369
:1004B00000243800310080B289B288422BD214F077
:1004C000FF09D9F58079B6B21FFA89F919FA87F0D0
:1004D000864201DAB6EB0709FFF74AFF002801D18F
:1004E000032019E0FFF7B3FF00214FF4037000F081
:1004F000ACFB0220FFF713FF200CC0B2FFF70FFF89
:10050000200AC0B2FFF70BFF2000C0B2FFF707FFC1
:100510005FF00008BAE70020BDE8F28338B50400B8
:100520000D00FFF725FF002801D103201CE0FFF795
:100530008EFF00214FF4037000F087FB2800C0B24B
:10054000FFF7EDFE200CC0B2FFF7E9FE200AC0B2B3
:10055000FFF7E5FE2000C0B2FFF7E1FE01214FF4F6
:10056000037000F072FB002032BD80B50123012230
:100570009949934800F082F9002800D0FEE7FFF780
:1005800015FEFFF70AFFFFF77FFE002002BD70B5E2
:1005900004000D001600B4F1807F01D301201DE09E
:1005A000002D01D1012019E0B6B2002E01D10120A9
:1005B00014E0FFF7E9FDFFF7F9FDFFF707FF320051
:1005C00092B229002000FFF713FF0400FFF7E5FEB9
:1005D000FFF75AFEFFF7E2FD2000C0B270BD2DE923
:1005E000F84F05000E00170000245FF00008B5F179
:1005F000807F01D30120E1E0002E01D10120DDE068
:10060000BFB2002F01D10120D8E0FFF7BDFDFFF7F9
:10061000CDFDFFF7DBFE5FF0000B13E05FF0FF3175
:100620004FF4806000F0E6FD6C491FFA8BFB41F847
:100630002B006A481FFA8BFB50F82B000028F8D0DB
:100640001BF1010B1FFA8BFBBBF1040FE6DB4046ED
:10065000390080B289B288422FD228005FEA00595F
:100660005FEA1959D9F58059BFB21FFA89F919FA09
:1006700088F0874201DAB7EB0809AA465FEA1A3A1E
:100680004FF4805000FB0AFA5FF0000B03E01AF50C
:10069000806A1BF1010B1FFA8BFBBBF1040F0FDA11
:1006A0004FF480624D481FFA8BFB50F82B105046D8
:1006B000FFF79EFE0028EAD004245FF0000B70E0F4
:1006C00000205FEA055A5FEA1A5A5FF0000B16E055
:1006D00042495FEA9A2251F822105FEA8A52920D4B
:1006E00011440A78FF2A00D001201FFA8BFB1BFA65
:1006F00088F2B25C0A701AF1010A1BF1010B59462B
:100700004A4689B292B29142E2D3C0B200280CD1DB
:100710004A4692B21FFA88F806EB08012800FFF754
:10072000A5FE00282AD00524C7E720212800FFF7CE
:10073000F5FE002801D00624BFE7AA465FEA1A3A70
:100740004FF4805000FB0AFA5FF0000B03E01AF54B
:10075000806A1BF1010B1FFA8BFBBBF1040F0DDA52
:100760004FF480621D481FFA8BFB50F82B10504647
:10077000FFF77CFE0028EAD005249EE719EB080865
:1007800015FA89F5B5F1807FFFF461AF00255EE7CA
:1007900012481FFA8BFB50F82B0000F01DFE1BF1D6
:1007A000010B1FFA8BFBBBF1040FF1DBFFF7F5FD2B
:1007B000FFF76AFDFFF7F2FC2000C0B2BDE8F28F40
:1007C00040580020403802400038004020380240A5
:1007D000083800400C380040CC4300088058002006
:1007E00040604168016070474268116042684A6039
:1007F0004160086070470168814201D1012000E03A
:100800000020C0B2704780B51430FFF7E9FF002028
:1008100002BD70B504000D001600280000F064FC55
:10082000F6B2002E02D0012E06D01EE015F1140102
:100830002000FFF7D9FF18E0266800E03668A642DE
:100840000CD0B6F1140095F8351090F8352091428F
:10085000F4D215F114011430FFF7C6FFA64204D1FB
:1008600015F114012000FFF7BFFF002070BD80B517
:100870000068143800F05CFC002002BD70B5040074
:1008800015001E000A000221200000F0EDFD2000EE
:10089000FFF7B9FFA5836672002070BD73B5050030
:1008A00000F016FE0400A88B002807D0A88B401E7D
:1008B000A883200000F010FE002076BD01980028DB
:1008C00005D1200000F008FE7FF00100F5E700F000
:1008D000C1FB0600002030636A7A310015F1140074
:1008E000FFF797FF0198012809DB01AA002116F103
:1008F0004C0000F05EFF16F14C0000F0CCFE200032
:1009000000F0EAFD01F008F8306B0028D4D0306B1D
:10091000D3E770B50400002600F0DAFD050014F1FD
:100920001400FFF768FF002805D114F11400FFF749
:100930009EFF012602E0A08B401CA083280000F04F
:10094000CBFD012E01D100F0E7FF002070BD0000BB
:1009500080B210F47F4080B2B0F5807F15D0B0F542
:10096000007F15D0B0F5407F15D0B0F5806F15D061
:10097000B0F5A06F15D0B0F5C06F15D0B0F5E06F31
:1009800015D0B0F5006F15D017E0DFF8D00415E0F2
:10099000DFF8CC0412E0DFF8CC040FE0DFF8C80485
:1009A0000CE0DFF8C80409E0DFF8C40406E0DFF873
:1009B000C40403E0DFF8C00400E00020704780B505
:1009C0000100C9B2102919D2DFF8B004C9B20C2253
:1009D00002FB01F21044406800280FD0DFF89C04AD
:1009E000C9B20C2202FB01F210448068DFF88C24AB
:1009F000C9B20C23594311444968884701BD80B5E9
:100A000001F06EF8DFF878040068C00706D5012011
:100A1000DFF86C1408600020FFF7D1FF01F06BF8DD
:100A200001BD80B501F05CF8DFF854040068800770
:100A300006D50220DFF8481408600120FFF7BFFF49
:100A400001F059F801BD80B501F04AF8DFF8300433
:100A50000068400706D50420DFF82414086002204F
:100A6000FFF7ADFF01F047F801BD80B501F038F8A0
:100A7000DFF80C040068000706D50820DFF8001432
:100A800008600320FFF79BFF01F035F801BD80B53A
:100A900001F026F8DFF8E8030068C00606D510204C
:100AA000DFF8DC1308600420FFF789FF01F023F86A
:100AB00001BD80B501F014F8DFF8C40300688006BA
:100AC00006D52020DFF8B81308600520FFF777FF70
:100AD000DFF8AC030068400606D54020DFF8A0131D
:100AE00008600620FFF76BFFDFF89403006800063C
:100AF00006D58020DFF8881308600720FFF75FFF26
:100B0000DFF87C030068C00507D54FF48070DFF87C
:100B1000701308600820FFF752FFDFF864030068D5
:100B2000800507D54FF40070DFF8541308600920E2
:100B3000FFF745FF00F0DFFF01BD80B500F0D0FFFB
:100B4000DFF83C030068400507D54FF48060DFF80C
:100B5000301308600A20FFF732FFDFF82403006833
:100B6000000507D54FF40060DFF8141308600B2070
:100B7000FFF725FFDFF808030068C00407D54FF42E
:100B80008050DFF8FC1208600C20FFF718FFDFF838
:100B9000F0020068800407D54FF40050DFF8E0123F
:100BA00008600D20FFF70BFFDFF8D4020068400457
:100BB00007D54FF48040DFF8C81208600E20FFF719
:100BC000FEFEDFF8BC020068000407D54FF40040C9
:100BD000DFF8AC1208600F20FFF7F1FE00F08BFF8A
:100BE00001BD80B580B210F47F4080B2B0F5807F47
:100BF00012D0B0F5007F17D0B0F5407F16D0B0F519
:100C0000806F15D0B0F5A06F14D0B0F5C06F13D0C1
:100C1000B0F5E06F12D013E00020C9B2012910D165
:100C2000C0B200F0E2FF0FE00120F6E70220F4E797
:100C30000320F2E70420F0E70520EEE70620ECE7CA
:100C400002E0C0B201F0CFF801BD38B504000D00DC
:100C5000200080B2FFF77CFE00280BD0EDB2002D03
:100C600001D1002200E00122D2B20121A14089B2CB
:100C700001F09DFA31BD30B585B004000D002000B3
:100C800080B2FFF765FE002800F090800121A140AE
:100C90000091EDB2002D48D0022D4DD053D3042D3C
:100CA0003CD02DD3062D16D031D3082D1AD020D309
:100CB0000A2D4FD008D30C2D5AD052D30E2D65D00B
:100CC0005DD30F2D69D071E00321019100210291C4
:100CD0000221039167E0002101910021029102218C
:100CE000039160E000210191022102910221039110
:100CF00059E000210191012102910221039152E06A
:100D00001121019100210291032103914BE0112156
:100D10000191022102910321039144E011210191EB
:100D200001210291032103913DE001210191002164
:100D300002910321039136E00121019102210291E8
:100D4000032103912FE0012101910121029103214F
:100D5000039128E0022101910021029103210391D6
:100D600021E00221019101210291032103911AE066
:100D700002210191022102910321039113E012212A
:100D8000019100210291032103910CE012210191B4
:100D9000012102910321039105E012210191022119
:100DA000029103210391694601F012F905B030BDAB
:100DB00070B586B005000E001400280080B2FFF761
:100DC000C7FD002847D00121A9400091F6B20A2EA4
:100DD00009D007D30C2E18D00ED30E2E27D01DD33A
:100DE0000F2E2DD037E00221019100210291032125
:100DF0000391E4B204942BE00221019101210291BC
:100E000003210391E4B2049422E002210191022122
:100E1000029103210391E4B2049419E0122101919B
:100E20000021029103210391E4B2049410E0122105
:100E300001910121029103210391E4B2049407E09E
:100E4000122101910221029103210391E4B2049441
:100E5000694601F0BDF806B070BD00000000024018
:100E60000004024000080240000C02400010024052
:100E70000014024000180240001C0240A05500204F
:100E8000143C014010B50400002C01D1012048E0C1
:100E9000606A0028A06AB0F5005F94F8510000284D
:100EA00005D1002084F85000200000F03BF802201B
:100EB00084F85100206800687FF0400108402168F4
:100EC00008606068A1680843E16808432169084335
:100ED00061690843A16911F400710843E16908439D
:100EE000216A0843A16A084321680860A069000CD0
:100EF00010F00400616A084321684860A06AB0F5F8
:100F0000005F02D1E06A216808612068C06930F49E
:100F100000602168C86100206065012084F85100EC
:100F2000002010BD704700004060416801607047BC
:100F30000268516002680A60016048607047416859
:100F40000268516001684268116040604168016058
:100F5000704738B500F07EF8040000F0B9FA0500DB
:100F6000200000F06FFD042084F8340014F14C00E0
:100F700000F081FB200000F0A3FA012806D1A06F49
:100F8000002803D1200000F08CFA04E014F11401D1
:100F90003D48FFF7CDFF280000F09EFA00F0BCFCB2
:100FA00031BD7CB5040015001E0014F11400FFF7DC
:100FB000BBFF256266620698A0620798E062E26A5B
:100FC0002321A06A01F02EF9304BA06AE16A08449F
:100FD000021F616A206A01F0FDFBE061089884F855
:100FE000360084F835000020A06309986064A0648E
:100FF00000202063002084F834000020A067002037
:10100000E067002001900020009023000FF26112A1
:10101000210014F14C0000F01BFB002076BDF0B560
:1010200085B004000D0016001F002A0001212000D9
:1010300000F01AFA0D9803900C9802900B9801900A
:101040000A9800903B00320029002000FFF7A9FF1A
:1010500005B0F0BD0E480068704780B590F83610B6
:1010600080F83510012190F93520914081630221EB
:1010700080F8341000F05CF8FFF7ECFF002801D096
:1010800000F04AFC002002BDA8580020530F0008C1
:10109000D458002080B500F03FFC002002BD31B5DF
:1010A000FFF7D8FF050000F013FA0400280000F055
:1010B0001BF86A46002115F14C0000F07AFB15F18F
:1010C0004C0000F0E8FA200000F006FA00F024FCE2
:1010D000286B10F1020F01D100202863002032BDDF
:1010E00080B5FFF7DCFF02BD38B5040094F834008A
:1010F00010F00F00012804D0032802D05FF0FF3069
:1011000015E000F0E5F90500200000F09BFC94F8E4
:10111000340010F0F00050F0020084F8340014F1B4
:101120004C0000F02FFB280000F0D6F9002032BD63
:1011300038B5040094F8340010F00F00022802D0F3
:101140005FF0FF3011E000F0C3F9050014F1140066
:10115000FFF7F5FE14F14C0000F014FB280000F03E
:10116000BBF9200000F041FC002032BD000000006F
:1011700010B504007FF00100206314F11400FFF7A4
:10118000DEFE200000F031FC00F0C6FB10BD0000C8
:1011900080B58020009040F2BC73334A3349344814
:1011A00000F085F80028FDD14FF48070009040F6E3
:1011B0002823304A3049314800F079F80028FDD121
:1011C0004FF40070009041F228432D4A2D492E48DB
:1011D00000F06DF80028FDD140F24C40009042F63E
:1011E00020332A4A2A492B4800F061F80028FDD113
:1011F000002002BD38B504000D00A4B2002C01D1BE
:10120000002030E0A4B2812C07DA2900184800F051
:1012100085F8002827D1002D25D1A4B2B4F5807F10
:1012200007DC2900154800F079F800281BD1002DB3
:1012300019D1A4B2B4F5007F07DC2900124800F0F0
:101240006DF800280FD1002D0DD1A4B240F24D4011
:10125000844207DA29000F4800F060F8002802D124
:10126000002D00D1002032BDDC490020AC43000835
:1012700060570020B43F0020B44300089857002076
:101280008C2B0020BC430008D05700206C000020AD
:10129000C44300080858002040604168016070475E
:1012A0000268516002680A6001604860704770B56A
:1012B000040015001E000A000821200000F0D4F8E8
:1012C0006561B0088000A061049DE81C8508AD0040
:1012D000E561A069E169091DB0FBF1F06062606A37
:1012E000A06214F12C00FFF7D7FF00206063606953
:1012F000002108E04A1C2B1D5A4302442B1D03FB0E
:1013000001F3C250491C626A9142F3D3491E2A1D5F
:101310005143002242502062002070BDF2B504000B
:101320000025FFF797FE060000F0D2F8070010E056
:10133000009801280ADB01F081FA0099081A2818A0
:1013400000900098002801D50020009000F0C0F81F
:101350000700A06A002833D10098002808D138007F
:1013600000F0BAF87FF0010000F048FF002032E002
:10137000002030633000FFF7B7FE16F1140114F1BE
:101380002C00FFF78DFF606B401C60630098012804
:101390000CDB01F053FA05006A46002116F14C00FF
:1013A00000F007FA16F14C0000F075F9380000F073
:1013B00093F800F0B1FA306B0028B9D000200AE0B1
:1013C000A06A401EA062256A286820622C6038004E
:1013D00000F082F8281DF2BD70B5061F346800F0D9
:1013E00077F80500A06A401CA062206A306026627F
:1013F000606B00280ED0E06A143800210163FFF70B
:1014000097FE606B401E6063280000F065F800F0F6
:1014100083FA02E0280000F05FF870BD02685160B6
:1014200002680A6001604860704741680268516064
:1014300001684268116040604168016070470021A6
:1014400000E0491C06290ADA064A0B01D25C0300B7
:10145000DBB29A42F5D103480901084400E00020BC
:101460007047000000000020F8B504000D001600D1
:101470002800C0B2FFF7E3FF070055F0800020729C
:1014800008223100200000F0F7FE00F021F80500EE
:1014900014F10C01381DFFF7C1FF280000F01CF803
:1014A000F1BD38B504000020207200F011F80500ED
:1014B00014F10C00FFF7B9FF280000F00DF831BD62
:1014C000007A000601D5012000E0002070470000EE
:1014D000EFF3108072B6704780F310887047334A7C
:1014E0001368012B04D04FF001031360304A1060E1
:1014F000304A11603048314901607047EFF3108283
:1015000072B62A48016891B14FF000010160284885
:10151000016829B1EFF3098121E9F00F006801604A
:10152000244909680968B1E8F00F81F3098882F35A
:1015300010884EF0040E70471E4908601C494FF099
:101540000000086019494FF0010008601C481D495F
:10155000D0F8002041EA02010160174817490160F4
:1015600019480068006800BF80F3088861B662B659
:101570007047EFF308801EF0040F01D0EFF30980ED
:1015800020E9F00FA0F10400C0F800E01EF0040F05
:1015900002D080F3098801E080F3088800B501F0EB
:1015A00038F95DF804EB4EF0040E7047C058002087
:1015B000B8580020BC58002004ED00E000000010E6
:1015C00020ED00E00000FF0008ED00E04060416811
:1015D000016070470268516002680A6001604860FB
:1015E000704741680268516001684268116040605C
:1015F0004168016070470168814201D1012000E02B
:101600000020C0B2704738B5040004986072607A58
:1016100010F0FE006072E16122620020A06263624D
:10162000002505E004EBC5001430FFF7CFFF6D1C6B
:10163000012DF7DB31BD38B50400002505E004EBD2
:10164000C5001430FFF7CDFF6D1C012DF7DB31BD58
:1016500070B582B0040015001E000A000A212000A7
:10166000FFF702FF07980090069B32002900200038
:10167000FFF7C9FF73BD38B50400FFF729FF050068
:101680002000FFF7D8FF2800FFF726FF2000FFF714
:1016900008FF002032BDF8B50400FFF719FF050070
:1016A0002000FFF7C8FF607A10F0FE00607228008B
:1016B000FFF712FF01F0C2F8616A0818A062FFF795
:1016C00007FF050068480090002611E0896AA26AB9
:1016D000891A7FF0004291421AD2002E07D0694643
:1016E00051F8261008316A4602EB86025160761CDA
:1016F000002E14D05D480068401C5C4908605B48BF
:10170000076814F114010098FFF764FF02262BE02C
:10171000694651F8261009686A4642F8261069465B
:1017200051F8261000EBC60252689142D5D06946A6
:1017300051F826100968142202EBC60252421144E5
:101740008A6AA36AD21A002AC0D1E1E7704204EB88
:10175000C00010F11C016846724200EB8200406834
:10176000FFF738FFBF08761C022E02D217F0030FD6
:10177000ECD0607A50F0010060722800FFF7ACFEF8
:101780000020F2BD38B50400607AC00702D45FF0D3
:10179000FF300DE0FFF79CFE05002000FFF74BFF38
:1017A0002800FFF799FE607A10F0FE0060720020BA
:1017B00032BD002908D0022909D002D303290BD059
:1017C0000EE0406A10600BE01168416208E0417A67
:1017D00011F0FD01417203E0417A51F002014172C2
:1017E0000020704770B501F029F80600FFF770FE81
:1017F000040006E0687A10F0FE0068722800FFF727
:101800004AFF1948FFF7F7FE00281CD11648006868
:10181000B0F11405A86A301A7FF00041884212D254
:101820002800FFF708FF286AE969884701F006F8F1
:101830000600687A10F003000328DBD0687A10F005
:10184000FE006872DDE72000FFF746FE70BD10B5B0
:10185000002405E0044800EBC400FFF7B7FE641C59
:10186000002CF7D010BD0000B0580020DC5800203C
:101870007047000040604168016070474268116035
:1018800042684A6041600860704741680268516080
:1018900001684268116040604168016070470168FA
:1018A000814201D1012000E00020C0B2704710B594
:1018B00004008448006800F05FFF411E824850F831
:1018C00031001438216010BD10B500207F49088018
:1018D000002405E07C4800EBC400FFF7CBFF641C4C
:1018E000202CF7DB0020774908607948FFF7C2FF1A
:1018F00010BD10B582B06846FFF7D9FF04007548E7
:101900000460200000F09EF8032084F8340014F1F5
:101910001C00FFF711FE13BDF8B5FFF7D9FD040059
:101920006A48B0F9000000285BD1664800680028CA
:1019300057D000256846FFF7BAFF060065480068E3
:1019400090F8340010F00F0003280AD161480068B5
:1019500090F835000099884202D25E48066800E09F
:1019600001255C48006886422BD000985A490870CF
:101970005848076857480660002D02D0380000F02C
:1019800034F8300000F05EF896F8340010F0F00003
:1019900050F0030086F8340050480078002809D140
:1019A00016F11C0117F11C00FFF799FD2000FFF74D
:1019B00093FD19E016F11C0117F11C00FFF78FFDD4
:1019C0000FE04448006800F03DF84248006890F895
:1019D000340010F0F00050F003003E49096881F82F
:1019E00034002000FFF778FDF1BD38B50500FFF7A2
:1019F0006FFD040037480068854208D195F834002F
:101A000010F0F00050F0030085F8340016E095F86F
:101A1000340010F0F00050F0010085F8340015F1AA
:101A20001401294895F8352000EBC200FFF726FF86
:101A300024480068A96B0843224908602000FFF78A
:101A40004BFD31BD38B50500FFF742FD040015F12F
:101A50001400FFF71AFF1C4895F8351000EBC10081
:101A6000FFF71DFF002805D016480068A96B8843C2
:101A7000144908602000FFF72FFD31BD80B5FFF746
:101A800027FD12490988491C104A1180FFF724FDDF
:101A900001BD80B5FFF71CFD0C490988491E0B4AA2
:101AA00011800A49B1F90010012907DA0021074A1B
:101AB0001180FFF711FDFFF72FFF01E0FFF70CFD8D
:101AC00001BD0000D0580020A0540020E0580020A4
:101AD000A8580020D4580020E4580020E3580020E3
:101AE00080B5FFF7F5FC0E490978491C0C4A1170C6
:101AF000FFF7F2FC01BD80B5FFF7EAFC0849097861
:101B0000491E074A1170FFF7E7FC01BD10B5FFF74A
:101B1000DFFC03490C78FFF7DFFC2000C0B210BDEA
:101B2000E358002000B591B0012005905FF48030AB
:101B3000069002200B905FF480000C9008200D901E
:101B4000F0200E9006200F900520109005A800F0C0
:101B50008FFEC0B20028FCD10F200090022001901F
:101B6000002002900020049000200390012168468C
:101B700001F07AF8C0B20028FCD10E2005900020B8
:101B800008900020079000200A9000200B9005A8E4
:101B900000F06EFEC0B20028FCD111B000BD10B53F
:101BA0000120DFF81C14087007210022DFF814441C
:101BB000200001F065F9002010BD80B50FF2DD3086
:101BC00001F09CF900200090DFF8FC03006850F061
:101BD0008050DFF8F4130860DFF8EC03006810F0C1
:101BE000805000900098002002BD10B582B0040023
:101BF000E4B2002C0CD0022C54D02ED3042C00F0D4
:101C0000958074D3062C00F0CF80C0F0AE80E9E060
:101C1000FFF75EFCDFF8AC13E4B2095D002910D1D8
:101C200000210091DFF8A413096851F00101DFF8E9
:101C30009C231160DFF89413096811F001010091F1
:101C40000099DFF88013E4B2095D491CDFF87423C2
:101C5000E4B21155FFF740FCC4E0FFF739FCDFF8B0
:101C60006413E4B2095D002910D100210091DFF86E
:101C70005C13096851F00201DFF850231160DFF8AE
:101C80004C13096811F0020100910099DFF8341338
:101C9000E4B2095D491CDFF82C23E4B21155FFF7CB
:101CA0001BFC9FE0FFF714FCDFF81813E4B2095D9A
:101CB000002910D100210091DFF81013096851F0BC
:101CC0000401DFF808231160DFF80013096811F040
:101CD000040100910099DFF8EC12E4B2095D491C9F
:101CE000DFF8E022E4B21155FFF7F6FB7AE0FFF7E8
:101CF000EFFBB449E4B2095D00290DD10021009148
:101D0000B249096851F00801B04A1160AF49096849
:101D100011F0080100910099AA49E4B2095D491C3B
:101D2000A84AE4B21155FFF7D7FB5BE0FFF7D0FB01
:101D3000A449E4B2095D00290DD100210091A34915
:101D4000096851F01001A14A1160A049096811F019
:101D50001001009100999B49E4B2095D491C994A20
:101D6000E4B21155FFF7B8FB3CE0FFF7B1FB954932
:101D7000E4B2095D00290DD1002100919349096861
:101D800051F02001914A11609049096811F0200139
:101D9000009100998B49E4B2095D491C894AE4B27B
:101DA0001155FFF799FB1DE0FFF792FB8549E4B25F
:101DB000095D00290DD1002100918449096851F085
:101DC0004001824A11608149096811F04001009187
:101DD00000997C49E4B2095D491C7A4AE4B2115584
:101DE000FFF77AFB13BD10B50400E4B2002C0BD052
:101DF000022C42D024D3042C79D05BD3062C00F0E3
:101E0000B080C0F09180C8E0FFF762FB6D49E4B29A
:101E1000095D002906D06B49E4B2095D491E694A93
:101E2000E4B211556749E4B2095D002905D167495B
:101E3000096849084900654A1160FFF74DFBACE0AD
:101E4000FFF746FB5F49E4B2095D002906D05D4912
:101E5000E4B2095D491E5B4AE4B211555949E4B246
:101E6000095D002906D1594909687FF00202114035
:101E7000564A1160FFF730FB8FE0FFF729FB51490D
:101E8000E4B2095D002906D04E49E4B2095D491E5D
:101E90004C4AE4B211554B49E4B2095D002906D120
:101EA0004A4909687FF004021140484A1160FFF76F
:101EB00013FB72E0FFF70CFB4249E4B2095D002915
:101EC00006D04049E4B2095D491E3E4AE4B21155CC
:101ED0003C49E4B2095D002906D13C4909687FF01C
:101EE00008021140394A1160FFF7F6FA55E0FFF792
:101EF000EFFA3449E4B2095D002906D03149E4B271
:101F0000095D491E2F4AE4B211552E49E4B2095D1C
:101F1000002906D12D4909687FF0100211402B4A93
:101F20001160FFF7D9FA38E0FFF7D2FA2549E4B299
:101F3000095D002906D02349E4B2095D491E214A02
:101F4000E4B211551F49E4B2095D002906D11F49C9
:101F500009687FF0200211401C4A1160FFF7BCFAAB
:101F60001BE0FFF7B5FA1749E4B2095D002906D076
:101F70001449E4B2095D491E124AE4B211551149EF
:101F8000E4B2095D002906D1104909687FF04002DA
:101F900011400E4A1160FFF79FFA10BD80B5FFF7A0
:101FA0006DFD07480078002807D101F045F80121B0
:101FB000012001F047F8FFF7B5FDFFF76AFD01BD0D
:101FC000E2580020A058002040380240303802403B
:101FD00078B4002400230024002239E00825EDB263
:101FE00012F00306F6B2B600B5402C43DFF8D45128
:101FF000960845F82640DFF8D04124689C434D6898
:10200000ED0300D51C43DFF8C0512C60DFF8BC4164
:1020100024689C434D68AD0300D51C43DFF8AC51E8
:102020002C60DFF8AC4124689C434D68ED0200D57C
:102030001C43DFF89C512C60DFF8984124689C43D6
:102040004D68AD0200D51C43DFF888311C60521C7E
:10205000102A80F0AA80012313FA02F40B682340AF
:10206000A342F4D14C68022C02D04C68122C15D13A
:10207000D40800EB8404246A0F2512F00706F6B298
:10208000B600B540AC430D6912F00706F6B2B600D3
:10209000B5402C43D50800EB85052C620468032568
:1020A0001600F6B27600B540AC430D7915F0030585
:1020B0001600F6B27600B5402C4304604C68012C43
:1020C00008D04C68022C05D04C68112C02D04C680A
:1020D000122C17D1846803251600F6B27600B5409D
:1020E000AC43CD681600F6B27600B5402C43846050
:1020F000446801259540AC434D68C5F300159540F3
:102100002C434460C46803251600F6B27600B5403F
:10211000AC438D681600F6B27600B5402C43C4601F
:102120004C68E40093D5002400942B4C246854F4AC
:102130008044294D2C60284C246814F48044009479
:10214000009C204C950854F825400F2512F00306FA
:10215000F6B2B600B540AC43204DA84201D10025EF
:102160003DE71F4DA84201D1012538E71D4DA8428A
:1021700001D1022533E71C4DA84201D103252EE7EA
:102180001A4DA84201D1042529E7194DA84201D1D1
:10219000052524E7174DA84201D106251FE7164D56
:1021A000A8427FF41BAF072519E771BC7047D2B274
:1021B000002A02D089B2816102E089B209048161FA
:1021C0007047000008380140003C0140043C0140D9
:1021D000083C01400C3C01404438024000000240F1
:1021E0000004024000080240000C024000100240BF
:1021F0000014024000180240001C024010B5040008
:10220000FFF784FC002803D0DFF8B405046008E081
:10221000FEF720FF002803D1DFF8A405046000E0EA
:10222000046310BD10B4030001F0FF04042A1DD3A1
:1022300010F00301002919D1030054EA042151EAE6
:10224000014108E019601B1D19601B1D19601B1D51
:1022500019601B1D103A102AF4D2042A03D3196006
:102260001B1D121FF9E701E01C705B1C11004A1EC8
:102270000029F9D110BC704710B4002A12D0030015
:102280000C78491C1C705B1CE4B2002C07D1521E58
:10229000002A03D0002119705B1CF8E702E0521EEF
:1022A000002AEDD110BC7047010000E0491C0A78FB
:1022B000002AFBD1081A704770470A290BD1016820
:1022C0000A22B1FBF2F302FB131102680A23B2FBEC
:1022D000F3F2026005E0017811F00F0102681209C3
:1022E000026008007047002107E00268531C036089
:1022F0000A23127803FB0121303902681278303A40
:102300000A2AF2D3080070472DE9FC4F87B0040079
:102310000D00139E0196129FDDF850905FEA496010
:1023200002D5DFF8A08401E0DFF89C845FEAC96091
:1023300003D57FF0010010EA09095FEAC97003D5EF
:1023400030208DF8000002E020208DF800005FF0C2
:10235000000A5FEA897013D50798002805D55FF059
:102360002D0A0798404207900AE05FEA497002D5BB
:102370005FF02B0A04E05FEA097001D55FF0200AE4
:102380005FF0000B0798002811D1302002A901F856
:102390000B001BF1010B0DE0089907A8FFF78DFF5B
:1023A00018F8000002A901F80B001BF1010B0798B7
:1023B0000028F1D15E4500DA5E46BF1B19F0110F0F
:1023C00011D15FFA8AFABAF1000F08D0012F06DBAB
:1023D0007F1E04E0A54201D320202070641C380039
:1023E000471E0128F6DA5FFA8AFABAF1000F05D023
:1023F000A54202D384F800A07F1E641C5FEAC96076
:102400000AD405E0A54202D39DF800002070641CA8
:102410003800471E0128F5DA3000461E83450CDAE5
:10242000A54201D330202070641CF5E7A54203D3F8
:1024300002A810F80B002070641C5846B0F1010B84
:10244000012802DB01980028F0D13800471E01283E
:1024500005DBA54201D320202070641CF5E7200095
:1024600009B0BDE8F08F2DE9F44F84B005001E00DF
:102470002F0005EB0100B0F10108A84518D25FF06C
:10248000FF38B8EB050113E03268361D5FEA89704A
:102490005FFA89F9CDF808900194CDF800A0DBB27D
:1024A00041463800FFF730FF07000498401C0490B5
:1024B00004980078002800F04381049800782528CB
:1024C00006D0B84502D30498007838707F1CECE73A
:1024D0005FF0000901E059F010090498401C0490D5
:1024E000049800782D28F6D0049800782B2802D183
:1024F00059F00409F1E704980078202802D159F036
:102500000809EAE704980078232802D159F0200945
:10251000E3E704980078302802D159F00109DCE79C
:102520005FF0FF3A0498007830380A2804D204A8F3
:10253000FFF7D9FE824610E0049800782A280CD1D3
:102540000498401C0490D6F800A0361DBAF1000F84
:1025500003D5DAF1000A59F010095FF0FF3404984E
:1025600000782E2818D10498401C04900498007814
:1025700030380A2804D204A8FFF7B5FE040008E0AA
:10258000049800782A2804D10498401C04903468E8
:10259000361D002C00D500240020049909786829F4
:1025A00003D0049909786C2904D10498007804991F
:1025B000491C04910A2304990978252900F0878091
:1025C000582900F09580632913D0642900F0948085
:1025D000692900F091806F2900F07F8070295FD019
:1025E000732926D0752900F08980782900F082802F
:1025F00085E05FEAC9600AD404E0B84501D3202031
:1026000038707F1CBAF1010ABAF1010FF5DA3068AF
:10261000361DB84500D338707F1C04E0B84501D39F
:10262000202038707F1CBAF1010ABAF1010FF5DAE7
:102630003BE7D6F800B0361DBBF1000F01D1DFF843
:102640008CB15846FFF730FE012C02DB844200DAE1
:1026500020005FEAC9610AD404E0B84501D3202113
:1026600039707F1C5146B1F1010A8842F5DB002127
:1026700008E0B84502D39BF800203A707F1C1BF19C
:10268000010B491C8142F4DB5146B1F1010A884239
:1026900005DAB84501D3202139707F1CF4E704E73F
:1026A0001AF1010F03D15FF0080A59F001093268ED
:1026B000361D5FFA89F9CDF808900194CDF800A095
:1026C000102341463800FFF71FFE0700EDE6B8452E
:1026D00001D3252038707F1CE7E60823C0B26C28A0
:1026E00021D13268361D5FEA89707FF5D1AECFE621
:1026F00059F040091023F1E759F00209EEE7B84517
:1027000001D3252038707F1C04980078002806D05B
:10271000B84502D30498007838707F1C02E0049812
:10272000401E0490C1E6C0B268287FF4ADAE3268A6
:10273000361D92B25FEA89707FF5AAAE12B2A7E6A3
:10274000B84502D30020387002E0002088F800006D
:10275000781B05B0BDE8F08F80B513000A005FF06C
:10276000FF31FFF780FE02BD0CB480B502AAFFF76F
:10277000F3FF02BC5DF80CFB002801D100201DE036
:10278000010605D0124900F0FF00085C401C15E06E
:1027900010F47F4F05D00E49C0F30720085C0930C4
:1027A0000CE010F47F0F05D00949C0F30740085C26
:1027B000113003E00649000E085C19307047000034
:1027C000CC5800206443000850430008DC43000854
:1027D0000441000870B4121DD208D200403A14001F
:1027E000002503E0134E44F825606D1C102DF9D32D
:1027F0002162002161620021A1620021E1620021C9
:1028000021636363A0635FF08070E063100070BCBD
:10281000704780B510F12401001D074800680028AA
:1028200006D00800044909688847002800D101BD86
:10283000FEE70000EFBEADDEC45800200B48006884
:10284000704780B509480068401C08490860FEF7D9
:1028500001FC816C491E8164816C002903D1416CAB
:102860008164FEF717FCFEF7BDFF01BD9851002003
:1028700070B582B00400002C01D10120F3E1207872
:10288000C0076FD5DFF8BC05006810F00C00042805
:102890000BD0DFF8B005006810F00C0008280ED14E
:1028A000DFF8A4050068400209D5DFF8A00500683C
:1028B000800357D56068002854D10120D3E16068B7
:1028C000B0F5803F08D1DFF88405006850F480300F
:1028D000DFF87815086024E06068B0F5A02F10D10B
:1028E000DFF86805006850F48020DFF860150860A4
:1028F000DFF85805006850F48030DFF850150860A4
:102900000FE0DFF84805006830F48030DFF83C1550
:102910000860DFF83805006830F48020DFF82C15F7
:102920000860606800280ED000F0D6FB0500DFF8D4
:102930001C050068800315D400F0CEFB401B652801
:10294000F5D303208FE100F0C7FB0500DFF8FC049E
:102950000068800306D500F0BFFB401B6528F5D357
:10296000032080E12078800727D5DFF8D8040068AD
:1029700010F00C0F0BD0DFF8CC04006810F00C0046
:10298000082833D1DFF8C004006840022ED4DFF8F5
:10299000BC040068800704D5E068012801D001204C
:1029A00061E1DFF8A80400687FF0F80108402169C0
:1029B00050EAC100DFF894140860207800075ED563
:1029C0006069002848D00120DFF88414086000F016
:1029D00083FB0500DFF87C04006880074FD400F01B
:1029E0007BFB401B0328F5D303203CE1E068002873
:1029F0001FD00120DFF86014086000F06DFB0500B7
:102A0000DFF848040068800706D400F065FB401B2F
:102A10000328F5D3032026E1DFF8300400687FF0B7
:102A2000F8010840216950EAC100DFF8201408606D
:102A3000C3E70020DFF82014086000F04DFB05001C
:102A4000DFF8080400688007B7D500F045FB401B9D
:102A50000328F5D3032006E10020DFF8F413086013
:102A600000F03AFB0500DFF8EC030068800706D5AC
:102A700000F032FB401B0328F5D30320F3E020785D
:102A8000400740F195800026DFF8D0030068C000C1
:102A900011D400200090DFF8C403006850F080508B
:102AA000DFF8B8130860DFF8B403006810F0805056
:102AB000009000980126DFF8A8030068C00516D42E
:102AC000DFF89C03006850F48070DFF8941308600E
:102AD00000F002FB0500DFF888030068C00506D49B
:102AE00000F0FAFA401B0328F5D30320BBE0A068EE
:102AF000012808D1DFF86C03006850F00100DFF80E
:102B00006413086024E0A068052810D1DFF854039E
:102B1000006850F00400DFF84C130860DFF844034D
:102B2000006850F00100DFF83C13086010E0DFF8A7
:102B30003403006840084000DFF828130860DFF81D
:102B4000240300687FF004010840DFF818130860D0
:102B5000A068002810D000F0BFFA0500DFF80403D9
:102B60000068800719D400F0B7FA401B41F28931A0
:102B70008842F3D3032076E000F0AEFA0500DFF8D8
:102B8000E4020068800708D500F0A6FA401B41F275
:102B900089318842F3D3032065E0F6B2012E07D1D4
:102BA000DFF8B802006830F08050DFF8B01208603B
:102BB000A069002856D0DFF88C02006810F00C00E5
:102BC00008284DD0A069022837D10020DFF89812DC
:102BD000086000F081FA0500DFF8700200688001EB
:102BE00006D500F079FA401B0328F5D303203AE01C
:102BF000E069216A0843616A50EA8110A16A891E6E
:102C0000C903090C09040843E16A50EA0160DFF8CE
:102C1000381208600120DFF85012086000F05CFAFA
:102C20000500DFF82802006880011BD400F054FA88
:102C3000401B0328F5D3032015E00020DFF82812FD
:102C4000086000F049FA0500DFF800020068800122
:102C500008D500F041FA401B0328F5D3032002E019
:102C6000012000E0002076BD70B504000D00002CAE
:102C700001D10120A9E0DFF8F401006810F00F0095
:102C8000A8420BD2DFF8E4010570DFF8E00100682C
:102C900010F00F00A84201D0012096E020788007B4
:102CA00020D52078400707D5DFF89801006850F458
:102CB000E050DFF8901108602078000707D5DFF8B2
:102CC0008401006850F46040DFF878110860DFF894
:102CD000740100687FF0F0010840A1680843DFF844
:102CE000641108602078C00739D56068012806D1D2
:102CF000DFF858010068800315D4012065E06068A2
:102D0000022802D06068032806D1DFF8400100687D
:102D1000800108D4012058E0DFF830010068800706
:102D200001D4012051E047480068800880006168B4
:102D300008434449086000F0CFF9060041480068A4
:102D400010F00C006168B0EB810F08D000F0C4F9FE
:102D5000801B41F289318842F0D3032035E043489B
:102D6000006810F00F00854209D2404805703F48C6
:102D7000006810F00F00A84201D0012025E0207863
:102D8000400707D52F48006830F4E050E168084359
:102D90002C4908602078000708D52A48006830F4DC
:102DA0006040216950EAC1002649086000F00EF831
:102DB0002F49244A1268C2F30312895CC8402D4986
:102DC00008600F2000F060F9002070BD00B50022FF
:102DD0000020002100201B48006810F00C00002893
:102DE00004D0042804D0082804D029E0224828E090
:102DF000224826E01448006810F03F02124800689C
:102E000040020AD510480068C0F388101B49A1FB96
:102E10000001002300F06CF909E00B480068C0F3E2
:102E200088101549A1FB0001002300F061F9064953
:102E30000968C1F30141491C4900B0FBF1F000E011
:102E40000D4800BD083802400438024000380240F6
:102E5000800E47427438024000004742403802402A
:102E6000007000407038024060004742003C024061
:102E700078430008640000200024F40000127A0067
:102E800062F30F2262F31F42401810F0030308D0D0
:102E9000C91A1FD3DB0748BF00F8012D28BF20F84F
:102EA000022D130030B414461546103928BF20E90E
:102EB0003C00FAD8490728BF20E90C0048BF40F879
:102EC000042D890028BF20F8022D48BF00F8012DED
:102ED00030BC7047C91818BF00F8012DCB0728BFB8
:102EE00000F8012D704700004168026851600168D8
:102EF00042681160406041680160704738B5040065
:102F00007FF00205FEF7E4FA002100E0491C0429E5
:102F100008D2434A52F82120002AF7D1404A42F809
:102F200021400025FEF7D8FA280032BD3D4801684F
:102F3000814201D0012000E00020C0B2704738B5C6
:102F400004E0FEF7A6FD2000FEF7C6FAFFF7EEFF4D
:102F5000002825D0FEF7BCFA0400FFF7E7FF0028A1
:102F60001AD030480068B0F1140515F11400FFF7CD
:102F7000BBFFFEF783FDA86F002802D02800A96FD1
:102F800088472800FEF79CFA0128DAD1FEF781FD78
:102F90002000FEF7A1FA03E02000FEF79DFAFFE70C
:102FA00031BD10B50DE01E4850F82400002803D0B4
:102FB0001B4850F824008047641C042CF3D3FFF70F
:102FC000BEFF0024F9E730B587B0002424E02200DA
:102FD000154904A8FFF7C8FB202003901F2002908A
:102FE0004FF4C070019011484FF4C07101FB04F11F
:102FF0000844009000230E4A04A90E48802505FBD2
:1030000004F52844FEF70BF80A48802101FB04F17F
:103010000844FEF722F8641C002CD8D007B030BD5D
:1030200090580020A8580020D443000820530020C6
:10303000A32F0008E05600200120014908607047D6
:1030400024000E420E4A12689208920010430C4A65
:1030500010600C48006850F004000A4A1060C9B2C1
:10306000012901D130BF02E040BF20BF20BF054889
:1030700000687FF0040108400249086070470000C2
:103080000070004010ED00E010B504004FF47A70BD
:1030900013490978B0FBF1F012490968B1FBF0F06F
:1030A00000F01FF9002801D001200CE0102C09D2FB
:1030B000002221005FF0FF3000F0FEF80A480460B3
:1030C000002000E0012010BD08480068044909788C
:1030D00040180649086070470448006870470000BF
:1030E000680000206400002060000020D858002004
:1030F0001B4213D1094236D12AB18446B0FBF2F00B
:1031000002FB10C2704700F001B9FCD3002200237B
:1031100070470B000200002100207047904271EBC5
:10312000030CF6D370B5B1FA81F4B3FA83F52C1B16
:10313000A340C4F1200532FA05F63343A2405FF004
:103140000046E64002E05B085FEA3202841A71EB57
:10315000030524BF204629467641F4D302000B0024
:103160003000002170BD012ACFD970B5140C20D0D9
:10317000B1FA81F4B2FA82F5C4F120046419B4F111
:103180002006D6D3B2405FF00044F440002502E0B0
:1031900052085FEA3303C61A71EB020E24BF3046B1
:1031A000714664416D41F3D302000B0020002900F9
:1031B00070BD0C46B1FBF2F102FB11452D0445EA4E
:1031C0001045B5FBF2F402FB145580B240EA054508
:1031D000B5FBF2F002FB105240EA044070BD000063
:1031E00010F00701414800684FF6FF021040404AC6
:1031F00052EA012108433D49086070473B48006896
:10320000C0F30220704740B2002804D40901394AB3
:1032100040B2115407E00901374A40B210F00F00E4
:10322000104400F8041C704710B410F00700D0F1EF
:103230000703052B01D3042301E0D0F10703041D8C
:10324000072C01D2002000E0C01E012414FA03F371
:103250005B1E19408140012313FA00F0401E10400C
:10326000084310BC7047BFF34F8F2048006810F42C
:10327000E060224908431D490860BFF34F8F00BF3B
:10328000FDE780B5411EB1F1807F01D301200EE042
:10329000401E1B4908600F215FF0FF30FFF7B3FFAE
:1032A000002018490860072017490860002002BD67
:1032B00080B5FFF795FF01BD70B504000D00160045
:1032C0000020FFF79BFF32002900FFF7ADFF010050
:1032D000200040B2FFF797FF70BD80B5FFF7C3FF36
:1032E00001BD80B5FFF7CDFF02BD00000CED00E091
:1032F0000000FA0500E400E018ED00E00400FA0523
:1033000014E000E018E000E010E000E0704700008A
:1033100080B5042296490020FDF761F901BD2DE931
:10332000F04104000D001600002D06D1002048E0F9
:103330004046FEF751F83C44ED1B002D40D00027DD
:1033400000E07F1CAF4202D2E05D0A28F9D1AF4213
:1033500001D3002035E07F1CB7F10D00212801D3F7
:1033600000202EE020783A2805D104EB070010F861
:10337000020C0D2801D0002023E05FF0FF31152062
:10338000FDF738FF8046B8F1000FFCD03800C21EB0
:1033900092B2611C404600F00AF9C0B2002804D184
:1033A0004046FEF719F800200BE00100C9B2404684
:1033B000B0470028BCD14046FEF70EF8002000E0E0
:1033C0000120BDE8F081F0B583B0002403E0FFF7F1
:1033D0009FFFFFF782FF042269462000FDF7D7F820
:1033E000002818D06348006800900098000C000482
:1033F000B0F1805F0ED160480568FEF769F8EFF321
:1034000014847FF00200044084F31488009880F351
:103410000888A847FEE7009858498842E2D1241D51
:10342000042201A92000FDF7B2F8002802D0FFF71E
:103430006FFFD7E701980830B0F5801F02D9FFF77A
:1034400067FFCFE70824002504E03800FDF7C4FF3C
:1034500075193419019885423AD20198461BB6F580
:103460007A7F01D94FF47A765FF0FF31300080B275
:10347000FDF7C0FE0700002FFDD0320092B23900E8
:103480002000FDF784F8002806D03800FDF7A4FFDF
:10349000002000901CE0761E002E05D007EB0600F1
:1034A00010F8010C0A28F6D1002E05D13800FDF7DE
:1034B00093FF002000900BE0314A31003800FFF705
:1034C0002EFF0028C1D13800FDF786FF00200090B4
:1034D00000982A49884202D0FFF71AFF82E70824A1
:1034E000002504E03800FDF777FF751934190198BD
:1034F0008542BFF46CAF0198461BB6F57A7F01D9BF
:103500004FF47A765FF0FF31300080B2FDF772FE43
:103510000700002FFDD0320092B239002000FDF7E5
:1035200036F8002806D03800FDF756FFFFF7F0FE0A
:10353000FEE7761E002E05D007EB060010F8010C02
:103540000A28F6D1002E05D13800FDF745FFFFF718
:10355000DFFEFEE70B4A31003800FFF7E0FE0028EF
:10356000C0D13800FDF738FFFFF7D2FEFEE70000BC
:10357000113300080000020804000208A55A5AA5E9
:10358000E93D0008133E00080021C0B2B0F130024E
:103590000A2A02D2B0F1300106E0C0B2B0F1410215
:1035A000062A01D2B0F137010800C0B270472DE9F8
:1035B000F84304000D00160000275FF00008002CFF
:1035C00001D100203BE0002D01D1002037E0B6B250
:1035D000002E07D0B6B2022096FBF0F100FB11607E
:1035E000002824D000202AE01FFA88F815F80800E7
:1035F000FFF7CAFF18F10108BFB2E055BFB2E05DA6
:103600000001BFB2E055B94619F101071FFA88F869
:1036100015F80800FFF7B8FF18F101081FFA89F93B
:1036200014F8091040181FFA89F904F809004046F7
:10363000310080B289B28842D6D3380080B2BDE86A
:10364000F2830000F8B506000F0014001D000120F1
:10365000DFF83002007E012801D1022037E001208E
:10366000DFF8201208764CF2503000F04BF8C0B270
:10367000002827D1002E05D12100C9B2380000F062
:10368000ACF813E0012E05D1210089B2380000F01A
:1036900090F80BE0022E04D12100380000F075F8FC
:1036A00004E022002B00380000F057F84CF25030B4
:1036B00000F028F8DFF8D011096849084900DFF860
:1036C000C82111600021DFF8BC211176C0B2F2BD23
:1036D00000206D49096800290AD56D496D4A1160BD
:1036E0006D496C4A116068490968002900D50120BC
:1036F000C0B270476448006850F0004062490860FA
:103700000020704738B50400002500205D49C861DD
:10371000FFF7E2FC05005D480068C0030BD514F11B
:10372000010FF8D0002C04D0FFF7D6FC401B8442D8
:10373000F1D2032010E055480068C00702D50120EF
:10374000524908605148006810F0F20F03D000F0B1
:1037500056F8012000E0002032BD10B44A49096843
:1037600031F44071484C21604749096851F4407177
:10377000454C21604449096851F00101424C2160E7
:103780000260001D036010BC70473F4A126832F4AB
:1037900040723D4B1A603C4A126852F400723A4B38
:1037A0001A60394A126852F00102374B1A60016000
:1037B0007047354A126832F44072334B1A60324A0D
:1037C000126852F48072304B1A602F4A126852F01D
:1037D00001022D4B1A60018070472B4A126832F4A7
:1037E0004072294B1A60284A1268274B1A60264AF1
:1037F000126852F00102244B1A600170704723488E
:103800000068C00608D51F48C06950F010001D4967
:10381000C86110201D4908601C480068800608D552
:103820001848C06950F008001649C861202017499F
:10383000086016480068400608D51248C06950F074
:1038400004001049C8614020104908600F48006812
:10385000000608D50B48C06950F002000949C8614C
:1038600080200A49086009480068800708D5054893
:10387000C06950F020000349C86102200349086074
:103880007047000060580020103C02400C3C024091
:1038900023016745043C0240AB89EFCD00B591B0F0
:1038A00000F0F4F8C0B20028FCD1012005905FF4CC
:1038B0008030069002200B905FF480000C9008206E
:1038C0000D90F0200E9006200F900520109005A876
:1038D000FEF7CEFFC0B20028FCD10F2000900220DE
:1038E000019000200290002004900020039001210C
:1038F0006846FFF7B9F9C0B20028FCD10E20059048
:10390000002008900020079000200A9000200B90D3
:1039100005A8FEF7ADFFC0B20028FCD111B000BD74
:1039200080B54D48FFF7DDFC002800D0FEE70022FF
:1039300000215FF0FF30FFF7BFFC01BD00B587B08D
:10394000002000904548006850F00100434908609D
:103950004248006810F0010000900098002000909C
:103960003E48006850F002003C4908603B4800684F
:1039700010F0020000900098002000903748006886
:1039800050F00400354908603448006810F0040025
:1039900000900098002000903048006850F0080027
:1039A0002E4908602D48006810F00800009000982B
:1039B000002000902948006850F010002749086056
:1039C0002648006810F01000009000984FF6FF7035
:1039D000019003200290002003900220049001A98E
:1039E0001F48FEF7F5FA01A91E48FEF7F1FA01A9F2
:1039F0001D48FEF7EDFA01A91C48FEF7E9FA019807
:103A0000B0F5C040019001A91948FEF7E1FA13484A
:103A100000684008400011490860104800687FF0C5
:103A2000020108400D4908600C4800687FF004015D
:103A300008400A490860094800687FF0080108400A
:103A400006490860054800687FF0100108400349F6
:103A50000860002007B000BD801A06003038024020
:103A60000004024000080240000C02400010024026
:103A70000000024080B50620FFF71AFCFFF70EFF9A
:103A8000FFF74EFF00F0C0F801BD000010B5FFF7D2
:103A900023FB04004E48006850F001004C490860C8
:103AA0004B480068800706D4FFF716FB001B03286D
:103AB000F6D303208AE04648006850F0800044496D
:103AC0000860FFF709FB04000020434908604248F2
:103AD000006810F00C0F08D0FFF7FEFA001B41F24F
:103AE00089318842F3D3032070E0FFF7F5FA040030
:103AF0003748006830F45020354908603448006881
:103B0000800306D5FFF7E8FA001B6528F6D30320EB
:103B10005CE0FFF7E1FA04002D48006830F08070A7
:103B20002B4908602A480068800106D5FFF7D4FABF
:103B3000001B0328F6D3032048E0FFF7CDFA04006A
:103B40002348006830F08060214908602048006800
:103B5000000106D5FFF7C0FA001B0328F6D30320A7
:103B600034E020481D4908601F481A4908601F4872
:103B7000006830F4F8501D4908601C48006830F4B3
:103B800000501A4908601948006850F41F0017498E
:103B900008601648006850F4001014490860144882
:103BA000006840084000124908601148006850F061
:103BB00080700F4908600A480E4908600F20FFF71F
:103BC00063FA002801D0012000E0002010BD0000B1
:103BD000003802408438024008380240043802406D
:103BE0000024F40010300004003000200C380240A3
:103BF00074380240640000200020704700207047A5
:103C0000002070470020704710B51B4C02E0206870
:103C10008047241D19488442F9D310BD10B5174CB4
:103C200002E020688047241D15488442F9D310BD66
:103C300080B500F045F8FDF74BFC00F02BF80020B4
:103C400002BD80B5FFF7EAFFFFF7BDFB01BD1FB561
:103C50000C4C14200390002002904FF4C07001908F
:103C6000094800900023094A09492000FDF7D7F9C7
:103C70002000FDF7F2F91FBDE8430008F4430008F7
:103C80000444000860560020A0510020433C000876
:103C9000A443000880B5FDF71BFCFFF7EBFEFEF721
:103CA0000BFBFDF7D4FDFDF70FFEFFF7D0FFFDF78F
:103CB000DFFDFFF788F9FDF71CFE002002BD0000C4
:103CC00010B5074979441831064C7C44163404E099
:103CD0000A68081D114488470146A142F8D110BD69
:103CE000EC0500000C06000001B586B0069872498C
:103CF000884201D200201BE00698C00317D10020A3
:103D000000900120019006986C490818400C401D55
:103D10000290012003900220049006A9684600F05A
:103D2000D1F8069810F1010F01D0002000E0012029
:103D300007B000BD2DE9F04107000C00160000257A
:103D40005D48874201D200204CE0F6B2002E01D13E
:103D5000002047E0F6B2042096FBF0F100FB116072
:103D6000002825D0B0465FFA88F8042098FBF0F8C8
:103D700018F101085FFA88F85FEA88085FF0FF3100
:103D80005FFA88F8404680B2FDF734FA0500002D4E
:103D9000FDD05FFA88F8FF2241462800FFF770F84F
:103DA000F6B232002100280000F070F92C004646DF
:103DB000FFF78EFC0BE03800FFF796FF2268002328
:103DC00039000220FFF73EFC3F1D241D361FF6B2CE
:103DD000002EF0D1FFF78EFC002D02D02800FDF759
:103DE000FBFA0120BDE8F0810022C9B2002905D10B
:103DF00000200DE0491E03789A18401CC9B2002922
:103E0000F8D1D2B2002A01D1012000E00020C0B2D6
:103E1000704738B504000D00EDB2681F112801D3BA
:103E2000002048E02900C9B22000FFF7DDFF00288C
:103E300001D100203FE02278641CD2B2501DEDB2C7
:103E4000A84201D0002036E02078641C00022178CE
:103E500050FA81F0641C21004C1C0978002902D022
:103E600004290DD026E0D2B22100154B1B6813FAAD
:103E700080F0FFF75FFF002801D100201BE019E070
:103E8000D2B2022A01D0002015E020780C49086047
:103E9000641C0B4800680002094908600848006873
:103EA000217850FA81F0064908600548006800044E
:103EB00003490860012032BD000002080000FEF73F
:103EC000C8580020F8B504000D0001260027DFF8CF
:103ED000B001007E012801D102204BE00120DFF873
:103EE000A01108764CF25030FFF70CFC0600F6B239
:103EF000002E3AD15FF0FF3028602068012813D1EE
:103F000061682069C0B200F036F84CF25030FFF71B
:103F1000F9FB0600DFF86C0100687FF0040108403F
:103F2000DFF8601108601EE0A76800E07F1CE06811
:103F3000A1680818874216D22169C9B2380000F07A
:103F400030F84CF25030FFF7DDFB0600DFF83401AB
:103F500000687FF0FA010840DFF828110860F6B227
:103F6000002EE3D02F6000F051F80020444908767D
:103F70003000C0B2F2BD4349096831F44071414A92
:103F800011604049096851F004013E4A11603D4901
:103F90000968C0B2000250F4803008433949086013
:103FA00070470022C9B2002901D100220DE0C9B238
:103FB000012902D14FF4807207E0C9B2022902D16F
:103FC0004FF4007201E04FF440722E49096831F459
:103FD00040712C4B19602B4909681143294A116023
:103FE000284909687FF0F8021140264A11602549E6
:103FF0000968C00050F002000843224908602148C7
:10400000006850F480301F49086070471E480068FF
:10401000800517D51C48006830F400701A49086004
:104020001948006850F40060174908601648006895
:1040300030F40060144908601348006850F40070C0
:104040001149086010480068400517D50E480068FF
:1040500030F480600C4908600B48006850F48050D0
:10406000094908600848006830F480500649086033
:104070000548006850F480600349086070470000FC
:1040800060580020103C0240003C024062B38B07A5
:1040900008D0521E11F8013B00F8013B00F02480CB
:1040A0008B07F6D1830740F0208000BF103A07D37A
:1040B00030B4B1E83810103AA0E83810F9D230BC6A
:1040C000530724BFB1E80810A0E8081044BF51F816
:1040D000043B40F8043BD20724BF31F8022B20F800
:1040E000022B44BF0B7803707047083A07D3B1E83E
:1040F0000810083A40F8043B40F804CBF7D25307C5
:10410000E4E70000000001000200010003000100DC
:104110000200010004000100020001000300010090
:10412000020001000500010002000100030001007F
:104130000200010004000100020001000300010070
:10414000020001000600010002000100030001005E
:104150000200010004000100020001000300010050
:10416000020001000500010002000100030001003F
:104170000200010004000100020001000300010030
:10418000020001000700010002000100030001001D
:104190000200010004000100020001000300010010
:1041A00002000100050001000200010003000100FF
:1041B00002000100040001000200010003000100F0
:1041C00002000100060001000200010003000100DE
:1041D00002000100040001000200010003000100D0
:1041E00002000100050001000200010003000100BF
:1041F00002000100040001000200010003000100B0
:10420000020001000F48006850F001000D490860ED
:1042100000200D4908600B4800680C490840094916
:1042200008600B480B4908600648006830F480209D
:10423000044908600020084908605FF000600749F1
:10424000086070470038024008380240FFFFF6FE61
:1042500010300024043802400C38024008ED00E021
:1042600019E050F8041BCB0744BFA9F1010359180A
:10427000121F0023042A41F8043BF9D25FEA827C32
:104280000B4604D54FF0000CA1F800C09B1CD107D1
:1042900044BF0021197050F8042B002AE1D1704767
:1042A00010B450F8041B79B1026843680244083026
:1042B000DC0744BFA9F10104E31852F8044B43F8AA
:1042C000044B091FF9D1ECE710BC704795FFFFFFC5
:1042D0007C5800006C00002000000000C5FFFFFFBC
:1042E0006C0000004C0200000000002000000000F4
:1042F0007047FEE7FEE7FEE77047704780B5FDF7C1
:10430000EFFBFEF79EFAFEF7DFFEFDF7F4FB01BDC3
:10431000FFF78EFC002801D0FFF7D2FC0020C0463A
:10432000C046FFF750F800F000F800F001B80000B8
:104330000746384600F002F8FBE7000080B5C046AB
:10434000C046024A11001820ABBEFBE7260002005F
:1043500030313233343536373839616263646566FB
:1043600000000000303132333435363738394142BD
:10437000434445460000000000000000000000002B
:104380000102030406070809014880470148004765
:104390000542000899430008C046C046C046C046D2
:1043A000FFF7B6FF6D61696E000000006D656D314D
:1043B000323800006D656D32353600006D656D3543
:1043C000313200006D656D31303234007732357135
:1043D000000000007469646C65256400284E554C2B
:1043E0004C290000F93B0008FD3B00083D3900085E
:1043F0009F1B0008013C0008BB1B0008911100082E
:104400006B050008053C0008FFF7FEBFFFF7FEBF85
:10441000FFF7FEBFFFF7FEBFFFF7FEBFFFF7FEBFD0
:10442000FFF7FEBFFFF7FEBFFFF7FEBFFFF7FEBFC0
:10443000FFF7FEBFFFF7FEBFFFF7FEBFFFF7FEBFB0
:10444000FFF7FEBFFFF7FEBFFFF7FEBFFFF7FEBFA0
:10445000FFF7FEBFFFF7FEBFFFF7FEBFFFF7FEBF90
:10446000FFF7FEBFFFF7FEBFFFF7FEBFFFF7FEBF80
:10447000FFF7FEBFFFF7FEBFFFF7FEBFFFF7FEBF70
:10448000FFF7FEBFFFF7FEBFFFF7FEBFFFF7FEBF60
:10449000FFF7FEBFFFF7FEBFFFF7FEBFFFF7FEBF50
:1044A000FFF7FEBFFFF7FEBFFFF7FEBFFFF7FEBF40
:1044B000FFF7FEBFFFF7FEBFFFF7FEBFFFF7FEBF30
:1044C000FFF7FEBFFFF7FEBFFFF7FEBFFFF7FEBF20
:1044D000FFF7FEBFFFF7FEBFFFF7FEBFFFF7FEBF10
:1044E000FFF7FEBFFFF7FEBFFFF7FEBFFFF7FEBF00
:1044F000FFF7FEBFFFF7FEBFFFF7FEBFFFF7FEBFF0
:10450000FFF7FEBFFFF7FEBFFFF7FEBFFFF7FEBFDF
:10451000FFF7FEBFFFF7FEBFFFF7FEBFFFF7FEBFCF
:10452000FFF7FEBFFFF7FEBFFFF7FEBFFFF7FEBFBF
:1045300001000000040000200400002080000000B2
:1045400002000000140000201400002020000000E1
:1045500004000000240000202400002020000000AF
:10456000050000003400002034000020300000006E
:104570000800000044000020440000203800000033
:104580000A00000054000020540000202C0000000D
:0C459000100000000024F4000A000000ED
:040000050800439913
:00000001FF
